{
  "abi": [
    {
      "inputs": [
        {
          "internalType": "address",
          "name": "_owner",
          "type": "address"
        }
      ],
      "name": "balanceOf",
      "outputs": [
        {
          "internalType": "uint256",
          "name": "",
          "type": "uint256"
        }
      ],
      "stateMutability": "view",
      "type": "function"
    },
    {
      "inputs": [],
      "name": "decimals",
      "outputs": [
        {
          "internalType": "uint8",
          "name": "",
          "type": "uint8"
        }
      ],
      "stateMutability": "pure",
      "type": "function"
    },
    {
      "inputs": [],
      "name": "name",
      "outputs": [
        {
          "internalType": "string",
          "name": "",
          "type": "string"
        }
      ],
      "stateMutability": "pure",
      "type": "function"
    },
    {
      "inputs": [],
      "name": "totalSupply",
      "outputs": [
        {
          "internalType": "uint256",
          "name": "",
          "type": "uint256"
        }
      ],
      "stateMutability": "pure",
      "type": "function"
    },
    {
      "inputs": [
        {
          "internalType": "address",
          "name": "_to",
          "type": "address"
        },
        {
          "internalType": "uint256",
          "name": "_amount",
          "type": "uint256"
        }
      ],
      "name": "transfer",
      "outputs": [],
      "stateMutability": "nonpayable",
      "type": "function"
    }
  ],
  "bytecode": {
    "object": "0x608060405234801561001057600080fd5b506102e2806100206000396000f3fe608060405234801561001057600080fd5b50600436106100575760003560e01c806306fdde031461005c57806318160ddd14610093578063313ce567146100ac57806370a08231146100bb578063a9059cbb146100e4575b600080fd5b604080518082018252600c81526b26b0b73ab0b6102a37b5b2b760a11b6020820152905161008a91906101b4565b60405180910390f35b68056bc75e2d631000005b60405190815260200161008a565b6040516012815260200161008a565b61009e6100c936600461021e565b6001600160a01b031660009081526020819052604090205490565b6100f76100f2366004610240565b6100f9565b005b6001600160a01b03821660009081526020819052604080822054338352908220546101249190610280565b33600090815260208190526040812080549293508492909190610148908490610299565b90915550506001600160a01b03831660009081526020819052604081208054849290610175908490610280565b90915550506001600160a01b0383166000908152602081905260408082205433835291205482916101a591610280565b146101af57600080fd5b505050565b600060208083528351808285015260005b818110156101e1578581018301518582016040015282016101c5565b506000604082860101526040601f19601f8301168501019250505092915050565b80356001600160a01b038116811461021957600080fd5b919050565b60006020828403121561023057600080fd5b61023982610202565b9392505050565b6000806040838503121561025357600080fd5b61025c83610202565b946020939093013593505050565b634e487b7160e01b600052601160045260246000fd5b808201808211156102935761029361026a565b92915050565b818103818111156102935761029361026a56fea26469706673582212205be8f2ca382e08ae8f422caa77c503e1c4eaa2f4be8c2469dc940ec78bb7ef3264736f6c63430008150033",
    "linkReferences": {}
  },
  "methodIdentifiers": {
    "balanceOf(address)": "70a08231",
    "decimals()": "313ce567",
    "name()": "06fdde03",
    "totalSupply()": "18160ddd",
    "transfer(address,uint256)": "a9059cbb"
  },
  "id": 5
}